{
  "_format": "hh-sol-artifact-1",
  "contractName": "PetStorage",
  "sourceName": "contracts/PetStorage.sol",
  "abi": [
    {
      "anonymous": false,
      "inputs": [
        {
          "indexed": true,
          "internalType": "string",
          "name": "petId",
          "type": "string"
        },
        {
          "indexed": false,
          "internalType": "string",
          "name": "cid",
          "type": "string"
        },
        {
          "indexed": false,
          "internalType": "uint256",
          "name": "timestamp",
          "type": "uint256"
        }
      ],
      "name": "PetLogged",
      "type": "event"
    },
    {
      "inputs": [
        {
          "internalType": "string",
          "name": "petId",
          "type": "string"
        }
      ],
      "name": "getPetData",
      "outputs": [
        {
          "internalType": "string",
          "name": "cid",
          "type": "string"
        },
        {
          "internalType": "uint256",
          "name": "timestamp",
          "type": "uint256"
        }
      ],
      "stateMutability": "view",
      "type": "function"
    },
    {
      "inputs": [
        {
          "internalType": "string",
          "name": "petId",
          "type": "string"
        },
        {
          "internalType": "string",
          "name": "cid",
          "type": "string"
        },
        {
          "internalType": "uint256",
          "name": "timestamp",
          "type": "uint256"
        }
      ],
      "name": "logPetData",
      "outputs": [],
      "stateMutability": "nonpayable",
      "type": "function"
    }
  ],
  "bytecode": "0x608060405234801561001057600080fd5b50610680806100206000396000f3fe608060405234801561001057600080fd5b50600436106100365760003560e01c8063368890a71461003b57806362465c601461006c575b600080fd5b6100556004803603810190610050919061036b565b610088565b60405161006392919061051e565b60405180910390f35b610086600480360381019061008191906103b0565b61016c565b005b60606000806000858560405161009f9291906104d3565b90815260200160405180910390206040518060400160405290816000820180546100c8906105c1565b80601f01602080910402602001604051908101604052809291908181526020018280546100f4906105c1565b80156101415780601f1061011657610100808354040283529160200191610141565b820191906000526020600020905b81548152906001019060200180831161012457829003601f168201915b5050505050815260200160018201548152505090508060000151816020015192509250509250929050565b604051806040016040528084848080601f016020809104026020016040519081016040528093929190818152602001838380828437600081840152601f19601f82011690508083019250505050505050815260200182815250600086866040516101d79291906104d3565b90815260200160405180910390206000820151816000019080519060200190610201929190610269565b5060208201518160010155905050848460405161021f9291906104d3565b60405180910390207fc4e85017d868b6b0ed256095e7bd7702d3a9f0a73d0646f96c496a5d6118a25b84848460405161025a939291906104ec565b60405180910390a25050505050565b828054610275906105c1565b90600052602060002090601f01602090048101928261029757600085556102de565b82601f106102b057805160ff19168380011785556102de565b828001600101855582156102de579182015b828111156102dd5782518255916020019190600101906102c2565b5b5090506102eb91906102ef565b5090565b5b808211156103085760008160009055506001016102f0565b5090565b60008083601f84011261031e57600080fd5b8235905067ffffffffffffffff81111561033757600080fd5b60208301915083600182028301111561034f57600080fd5b9250929050565b60008135905061036581610633565b92915050565b6000806020838503121561037e57600080fd5b600083013567ffffffffffffffff81111561039857600080fd5b6103a48582860161030c565b92509250509250929050565b6000806000806000606086880312156103c857600080fd5b600086013567ffffffffffffffff8111156103e257600080fd5b6103ee8882890161030c565b9550955050602086013567ffffffffffffffff81111561040d57600080fd5b6104198882890161030c565b9350935050604061042c88828901610356565b9150509295509295909350565b60006104458385610559565b935061045283858461057f565b61045b83610622565b840190509392505050565b6000610472838561056a565b935061047f83858461057f565b82840190509392505050565b60006104968261054e565b6104a08185610559565b93506104b081856020860161058e565b6104b981610622565b840191505092915050565b6104cd81610575565b82525050565b60006104e0828486610466565b91508190509392505050565b60006040820190508181036000830152610507818587610439565b905061051660208301846104c4565b949350505050565b60006040820190508181036000830152610538818561048b565b905061054760208301846104c4565b9392505050565b600081519050919050565b600082825260208201905092915050565b600081905092915050565b6000819050919050565b82818337600083830152505050565b60005b838110156105ac578082015181840152602081019050610591565b838111156105bb576000848401525b50505050565b600060028204905060018216806105d957607f821691505b602082108114156105ed576105ec6105f3565b5b50919050565b7f4e487b7100000000000000000000000000000000000000000000000000000000600052602260045260246000fd5b6000601f19601f8301169050919050565b61063c81610575565b811461064757600080fd5b5056fea26469706673582212207b135829f4d89c963dd2d2665581908d112d59e50a868e8814515cbea152889164736f6c63430008000033",
  "linkReferences": {},
  "deployedLinkReferences": {}
}